:0200030004589F
:020005000407EE
:0200070003D91B
:020009000430C1
:1003A400102300FE00FD00FB00F700EF00DF00BF9C
:1003B400007F02210007143500C000F900A400B03A
:1003C40000990092008200F800800098023300092E
:0403D40002490009D1
:100458007590FF75A0FF75B0FF7F0112000E7F0237
:0D04680012000E7F0312000EE4FF02009749
:100407000522E52270020521640845217004F521C3
:10041700F522E52225E02423F808E6F590E4FBFA27
:090427007D327F0212014780D7EB
:1003D9000534E53470020533640A45337009F53391
:1003E900F5347F03120120E53425E02435F808E6C9
:0E03F900F5B0E4FBFA7D327F0212014780D29C
:10043000E4FBFAFD7F01120147054AE54A70020517
:1004400049640A45497004F549F54AE54A25E0241E
:0804500035F808E6F5A080D89C
:10000E00EFD3940340037FFF22740F2F2FF8E620C7
:10001E00E5F4C2AFE64430F6D2AFAE0CEEC39F505D
:10002E00210E74162EF8E6F908E618BE030274FFC8
:10003E00FDED69600909E71919F7090980F316162C
:10004E0080DAEED39F400405810581EED39F4022D6
:10005E0074162EF808E6F9EEB50C02A981180606FC
:10006E00E6FDED6960091919E70909F71980F31E14
:10007E0080D9EF2416F8E604F8EF2F0490000393CE
:09008E00F608EF2F93F67F002223
:10009700EFD3940340037FFF22EF23240FF8E630CA
:1000A700E5F4C2AFE6548CF6D2AFE50CB5070A7497
:1000B700162FF8E6F581020221502E74172FF8E665
:1000C700BF030274FFFD18E6F974162FF8FBE6FC70
:1000D700E96C6008A805E7F61D1980F4A803A605D2
:1000E7001FE50CB507E37F002274172FF8E6FD180C
:1000F70086010F74162FF8A601088604E50CB507CC
:1001070002AC81ED6C60080D09A805E6F780F4E5FF
:090117000CB507DE89817F00228E
:10012000EFD3940340037FFF22EF23240FF8C2AFE5
:10013000E630E50530E002D2E4D2E2C6D2AF7F007D
:0701400030E2010F0201F59E
:100147008FF0E4FFFEE50C23240EF8C2A930F70D6B
:100157007F08E6600B2DF660325030800730F106DD
:10016700EDF660277E020830F010C2AFE610E725F3
:100177000E30E20CD2AF7F048014C2AFE610E71551
:1001870054EC4EF6D2AFD2A90202217F0808EF4401
:0F01970083F4C2AF56C6D2AFD2A954804FFF2215
:03000B000201AB44
:1001A600C2AF80FE321201AA85D00B75D008AAE034
:1001B600C28CE58A24F7F58AE58C34D8F58CD28C86
:1001C600EC2417F8E6BC030274FFC39581B414004F
:1001D60040CE7904780E16E608700BC2AFE630E121
:1001E600034418F6D2AF08D9EDEA8BD030000122CD
:1001F600D50DFCC0E0C0D0C0F0C083C082C000C036
:1002060001C002C003C004C005C006C007E50C2338
:10021600240FF87440C2AF46F6D2AFD200E50CFF09
:1002260023240FF80F0808BF04047F00780FE63078
:10023600E4F200E50CC39F5020050C7416250CF85B
:10024600E6FDA68108E6AE0CBE030274FFCDF8E813
:100256006D60E008E6C0E080F6E50CD39F4027E538
:100266000C2417F8E6AE0CBE030274FFFD18E6CDAB
:10027600F8E5816D6006D0E0F61880F5E50C2416E9
:10028600C8F6150C80D3750D05E50C23240FF87FF1
:1002960004C2AFE610E61E30E00310E20C7F003029
:0502A600E10730E30454
:1002AB007F0854F4547CC6D2AF54804207C200225C
:1002BB00F6D2AFD007D006D005D004D003D002D0F1
:1002CB0001D000D082D083D0F0D0D0D0E0C20022B9
:1002DB007816A68174036006FF0876FFDFFB7F04A8
:1002EB00E4780EF608F608DFFA780F763090000304
:1002FB00740193C0E0E493C0E0750D05438901756B
:0D030B008AF0758CD8D28CD2AFD2A9220313
:03000000020318E0
:0C031800787FE4F6D8FD75814A02035F8F
:100324000202DBE493A3F8E493A34003F68001F212
:1003340008DFF48029E493A3F85407240CC8C333DA
:10034400C4540F4420C8834004F456800146F6DFA9
:10035400E4800B01020408102040809003A4E47E92
:10036400019360BCA3FF543F30E509541FFEE4939E
:10037400A360010ECF54C025E060A840B8E493A365
:10038400FAE493A3F8E493A3C8C582C8CAC583CA90
:10039400F0A3C8C582C8CAC583CADFE9DEE780BE48
:0103D8000024
:00000001FF
